:100000006CEF0EF00000000000EF00F000000000B8
:0A0010000000000000000000F3D71C
:0E001C0001015DB102D08B9801D08B881200DB
:0E002A0001015DB102D08B9601D08B861200D1
:0E00380001015DB102D08D9601D08D861200BF
:0E00460001015DB102D0899401D089841200BD
:0E00540001015DB102D08B9C01D08B8C12009B
:0E00620001015DB102D08B9401D08B8412009D
:0E00700001015DB102D08B9A01D08B8A120083
:0E007E0001015DB102D08B9E01D08B8E12006D
:0E008C0001015DB102D08A9201D08A82120079
:0E009A0001015DB102D08D9401D08D84120061
:0E00A80001015DB102D08F9201D08F82120053
:0E00B60001015DB102D08F9401D08F84120041
:0E00C40001015DB102D08B9801D08B88120033
:0E00D20001015DB102D08B9601D08B86120029
:0E00E00001015DB102D08A9401D08A84120021
:0E00EE0001015DB102D08B9801D08B88120009
:0E00FC0001015DB102D08B9601D08B861200FF
:0E010A0001015DB102D08F9001D08F801200F4
:0E01180001015DB102D08B9A01D08B8A1200DA
:0E01260001015DB102D08B9801D08B881200D0
:0E01340001015DB102D08B9601D08B861200C6
:0E01420001015DB102D08B9201D08B821200C0
:0E01500001015DB102D08B9A01D08B8A1200A2
:0E015E0001015DB102D08D9001D08D801200A4
:10016C000F0121B302D00000FBD75DC11CFF1200B0
:0E017C00ACB202D00000FCD75DC1ADFF120096
:0E018A0001015DB102D08B9001D08B8012007C
:0E01980001015DB102D0899001D08980120072
:0E01A60001015DB102D08A9001D08A80120062
:0E01B40001015DB102D08D9201D08D8212004A
:0E01C20001015DB102D0899801D08988120038
:0E01D00001015DB102D08B9801D08B88120026
:0E01DE0001015DB102D08B9601D08B8612001C
:0E01EC0001015DB102D0899201D0898212001A
:0E01FA0001015DB102D08B9C01D08B8C1200F4
:0E02080001015DB102D08B9E01D08B8E1200E1
:0E02160001015DB102D08B9801D08B881200DF
:0E02240001015DB102D08B9601D08B861200D5
:1002320068B409D01F0E6614016E0150000A03E172
:0A024200010E006E01D0006A1200E8
:10024C00F250026EF29E0500FF6A0150FE6E0050E5
:08025C00FD6E02BEF28E1200DD
:10026400C7B409D01F0EC514016E0150000A03E182
:0A027400010E006E01D0006A1200B6
:0C027E00000E0F0121B3010E006E1200F3
:0A028A00000EA4BA010E006E12006F
:0A029400000E80B0010E006E120093
:0A029E00000E82B6010E006E120081
:0A02A800000E84B0010E006E12007B
:0A02B200000E82B0010E006E120073
:0A02BC00000E82BA010E006E12005F
:1002C600B7C059F1B8C05AF1B9C05BF1BAC05CF118
:1002D6000101576B586B5851120802E157518E08AD
:1002E60008E3A4DF005201E004D00101574B582B6C
:1002F600F2D70101120E585D02E18F0E575D03E33E
:100306007B0E006E26D0668066A022D00001B75113
:10031600B811B911BA111BE0010159515A115B11FB
:100326005C110EE1CEC0E1FFCFC0E2FF050EE66E26
:10033600CCC000F0CDC001F086DF010E006E09D002
:10034600010E0101595F000E5A5B5B5B5C5BDCD7FB
:04035600006A120027
:0A035A00000E82B4010E006E1200C6
:10036400AECF01F0ABA202D0AB98AB8801C000F0D5
:02037400120075
:100376001DCF01F00F0122A302D02299228901C0CC
:0403860000F0120071
:0A038A00000EACB2010E006E12006E
:0A039400000E9EBA010E006E12006A
:0A039E00000E80B8010E006E120080
:0A03A800000E80B2010E006E12007C
:0A03B200000E82B8010E006E12006A
:0A03BC00000E82B8010E006E120060
:0A03C600000E82B6010E006E120058
:0A03D000000E84B2010E006E120050
:0A03DA00000E82B6010E006E120044
:0A03E400000E82B2010E006E12003E
:0A03EE00000E82BA010E006E12002C
:0A03F800000E82B8010E006E120024
:0A040200000E82BC010E006E120015
:0A040C00000E82BE010E006E120009
:0A041600000E81B0010E006E12000E
:0A042000000E82B8010E006E1200FB
:10042A005AC059F15BC05AF15CC05BF15DC05CF126
:10043A009E96C5869EB61FD05A505B105C105D1002
:10044A0019E0010159515A115B115C110CE1BDC04F
:10045A00E1FFBEC0E2FF030EE66EBBC000F0BCC007
:10046A0001F0EFDE08D0010E0101595F000E5A5B60
:10047A005B5B5C5BDFD70101C9CF58F15751000ABA
:10048A0002E1C58A01D0C59A9E96C5885AC059F11B
:10049A005BC05AF15CC05BF15DC05CF19EB61FD0D7
:1004AA005A505B105C105D1019E0010159515A1144
:1004BA005B115C110CE1BDC0E1FFBEC0E2FF030E9F
:1004CA00E66EBBC000F0BCC001F0BBDE08D0010E76
:1004DA000101595F000E5A5B5B5B5C5BDFD758C159
:0404EA0000F012000C
:1004EE009E9657C1C9FF5AC058F15BC059F15CC006
:1004FE005AF15DC05BF1C7A421D05A505B105C105D
:10050E005D101BE00101585159115A115B110EE19A
:10051E00BDC0E1FFBEC0E2FF040EE66EBBC000F040
:10052E00BCC001F08CDE010E006E3AD0010E01014E
:10053E00585F000E595B5A5B5B5BDDD75AC058F1B2
:10054E005BC059F15CC05AF15DC05BF19EB621D023
:10055E005A505B105C105D101BE00101585159118F
:10056E005A115B110EE1BDC0E1FFBEC0E2FF040EE9
:10057E00E66EBBC000F0BCC001F061DE010E006E85
:10058E000FD0010E0101585F000E595B5A5B5B5B89
:10059E00DDD7C5BC02D0006A03D0C584020E006E42
:0205AE00120039
:0A05B000000E86B4010E006E12006A
:0A05BA00000E86B2010E006E120062
:0A05C400000E82B6010E006E120058
:1005CE00B7C059F1B8C05AF1B9C05BF1BAC05CF10D
:1005DE00A19A6686A1BA20D00001B751B811B911FF
:1005EE00BA1119E0010159515A115B115C110CE15C
:1005FE00CEC0E1FFCFC0E2FF030EE66ECCC000F02E
:10060E00CDC001F01CDE08D0010E0101595F000EB5
:10061E005A5B5B5B5C5BDED701016ACF58F15751C9
:10062E00000A02E1668A01D0669AA19A6688B7C06E
:10063E0059F1B8C05AF1B9C05BF1BAC05CF1A1BAB8
:10064E0020D00001B751B811B911BA1119E001014A
:10065E0059515A115B115C110CE1CEC0E1FFCFC0B4
:10066E00E2FF030EE66ECCC000F0CDC001F0E7DD78
:10067E0008D0010E0101595F000E5A5B5B5B5C5B9B
:08068E00DED758C100F0120094
:10069600B7C057F1B8C058F1B9C059F1BAC05AF14C
:1006A600668266A220D00001B751B811B911BA11FD
:1006B60019E001015751581159115A110CE1CEC0D8
:1006C600E1FFCFC0E2FF060EE66ECCC000F0CDC063
:1006D60001F0B9DD08D0010E0101575F000E585B2D
:0806E600595B5A5BDED71200DC
:0406EE00668412000C
:1006F2005AC059F15BC05AF15CC05BF15DC05CF15C
:100702000101576B586B5851120802E157518E087C
:1007120008E3A7DD005201E004D00101574B582B3A
:10072200F2D70101120E585D02E18F0E575D03E30D
:100732007B0E006E24D0C580C5A020D05A505B101D
:100742005C105D101AE059515A115B115C110EE1F7
:10075200BDC0E1FFBEC0E2FF050EE66EBBC000F009
:10076200BCC001F072DD010E006E09D0010E010164
:10077200595F000E5A5B5B5B5C5BDED7006A12005E
:10078200A19A57C16AFFB7C058F1B8C059F1B9C0B0
:100792005AF1BAC05BF168A422D00001B751B81176
:1007A200B911BA111BE00101585159115A115B11CB
:1007B2000EE1CEC0E1FFCFC0E2FF040EE66ECCC078
:1007C20000F0CDC001F041DD010E006E3BD0010E04
:1007D2000101585F000E595B5A5B5B5BDCD7B7C007
:1007E20058F1B8C059F1B9C05AF1BAC05BF1A1BA17
:1007F20022D00001B751B811B911BA111BE00101A1
:10080200585159115A115B110EE1CEC0E1FFCFC010
:10081200E2FF040EE66ECCC000F0CDC001F015DDA3
:10082200010E006E0FD0010E0101585F000E595BE0
:100832005A5B5B5BDCD766BC02D0006A03D066847D
:06084200020E006E120020
:100848005AC057F15BC058F15CC059F15DC05AF10C
:10085800C582C5A21FD05A505B105C105D1019E00C
:1008680001015751581159115A110CE1BDC0E1FF4E
:10087800BEC0E2FF060EE66EBBC000F0BCC001F0D1
:10088800E1DC08D0010E0101575F000E585B595B8F
:060898005A5BDFD71200DD
:04089E00C5841200FB
:0A08A200000E82B6010E006E120077
:0A08AC00000E82B8010E006E12006B
:0A08B600000E80B4010E006E120067
:0A08C000000E81B2010E006E12005E
:0A08CA00000E82BE010E006E120047
:0A08D400000E82BC010E006E12003F
:0A08DE00000E84B6010E006E120039
:0A08E800000E82BA010E006E12002D
:0A08F200000E86B0010E006E120029
:0A08FC00000E81B4010E006E120020
:0A090600000E84B4010E006E120012
:0A091000000E82B6010E006E120008
:0A091A00000E82B8010E006E1200FC
:100924006C0E0001EC6F010EED6F5D0EEE6F010EAB
:10093400EF6F760EF06F030EF16F000EF26F000E84
:10094400F36F8A0EE86F020EE96F000EEA6F000E75
:10095400EB6F7E0EFC6F020EFD6F000EFE6F000E3D
:10096400FF6F0F01218B900E226F98849892A4AA96
:0A09740003D01DCF00F0FBD71200E6
:10097E0001014D6B4E6BBFC000F0C0C001F05FDCDB
:10098E0000C04DF1000E01014E6F4DC100F04EC181
:04099E0001F0120052
:1009A200640E0001F46F020EF56F000EF66F000E7A
:1009B200F76FF20EF86F060EF96F000EFA6F000E67
:1009C200FB6F480E0101056F080E066F000E076FE0
:1009D200000E086F2A0E016F040E026F570E036F8E
:1009E200010E046FEE0E0001E46F040EE56F570E68
:1009F200E66F010EE76F9E0EE06F080EE16F000ECC
:100A0200E26F000EE36F949894968B988B9694887D
:0C0A12009486C79EC79C380EC66E12006A
:100A1E00086A096A100E0C6E013408360936045045
:100A2E00085E0550D8A0053C095ED8B007D004502A
:100A3E0008260550D8B0053C0926D8900036013658
:060A4E000C2EEAD7120095
:100A54000101556B566B4EC153F14FC154F14DC159
:100A640000F000360090DEC0E1FFDFC0E2FF00C00E
:100A7400E6FFDCC000F0DDC001F026EC01F0005020
:100A840001015513000E561350C100F051C101F07D
:100A9400010E505F000E515B0050011018E0DEC0E3
:100AA400E1FFDFC0E2FF53C1E9FF54C1EAFFEECF2B
:100AB400E6FFDCC000F0DDC001F026EC01F00050E0
:100AC40001015513000E5613534B542BDDD75251CD
:100AD400000A06E1D0C000F0D1C001F026EC01F01C
:100AE40001015251010A06E1D8C000F0D9C001F059
:0E0AF40026EC01F055C100F056C101F01200D1
:100B02007C0E0001EC6F010EED6F5D0EEE6F010EBB
:100B1200EF6F640EF06F030EF16F000EF26F000EB6
:100B2200F36F940EE86F030EE96F000EEA6F000E8A
:100B3200EB6F8A0EFC6F030EFD6F000EFE6F000E50
:100B4200FF6FAC8A900EAB6E948E949C9EAA03D0DB
:080B5200AECF00F0FBD712004A
:100B5A000101556B566B4EC153F14FC154F14DC152
:100B6A0000F0003600900080DEC0E1FFDFC0E2FF47
:100B7A0000C0E6FFDCC000F0DDC001F026EC01F0A9
:100B8A00005001015513000E5613010E505F000E5E
:100B9A00515B5051511116E0D6C0E1FFD7C0E2FFB8
:100BAA00010EE66ED4C000F0D5C001F026EC01F0CB
:100BBA0053C1E1FF54C1E2FF00C0E6FF0101534BFC
:100BCA00542BE3D7D6C0E1FFD7C0E2FFE66AD4C010
:100BDA0000F0D5C001F026EC01F053C1E1FF54C189
:100BEA00E2FF00C0E6FF01015251000A06E1D0C04F
:100BFA0000F0D1C001F026EC01F001015251010AC6
:100C0A0006E1D8C000F0D9C001F026EC01F055C1C8
:080C1A0000F056C101F01200C8
:100C220046C148F147C149F1A9DEC3C04DF1480EA2
:100C32004E6F010E4F6F020E506F000E516F526BCE
:040C420008DF1200B5
:100C460021D0CF0EAF6EAC9459DF6BD0670EAF6E6E
:100C5600AC9454DF66D0CF0EAF6EAC844FDF61D05C
:100C6600670EAF6EAC844ADF5CD0440EAF6EAC84C8
:100C760045DF57D0220EAF6EAC8440DF52D0060E51
:100C8600006E59D0000E006E0101491908E10050AE
:100C9600481905E1120E471902E14651C00AD1E092
:100CA600000E006E491908E10050481905E1250EAD
:100CB600471902E14651800AC9E0000E006E491943
:100CC60008E10050481905E14B0E471902E146516B
:100CD600000AC1E0000E006E491908E100504819EB
:100CE60005E1960E471902E14651000AB9E0000EE9
:100CF600006E491908E10050481905E1E10E47194F
:100D060002E14651000AB1E04951000A08E14851A2
:100D1600010A05E14751C20A02E14651000AAAE06A
:100D2600AED77C0E0001C46F010EC56F5D0EC66F97
:080D3600010EC76F006A1200F4
:100D3E0021D0CF0EAF6EAC94DDDE6BD0670EAF6EF2
:100D4E00AC94D8DE66D0CF0EAF6EAC84D3DE61D05D
:100D5E00670EAF6EAC84CEDE5CD0440EAF6EAC844C
:100D6E00C9DE57D0220EAF6EAC84C4DE52D0060E52
:100D7E00006E59D0000E006E0101491908E10050B5
:100D8E00481905E1120E471902E14651C00AD1E099
:100D9E00000E006E491908E10050481905E1250EB4
:100DAE00471902E14651800AC9E0000E006E49194A
:100DBE0008E10050481905E14B0E471902E1465172
:100DCE00000AC1E0000E006E491908E100504819F2
:100DDE0005E1960E471902E14651000AB9E0000EF0
:100DEE00006E491908E10050481905E1E10E471956
:100DFE0002E14651000AB1E04951000A08E14851AA
:100E0E00010A05E14751C20A02E14651000AAAE071
:100E1E00AED77C0E0001C46F010EC56F5D0EC66F9E
:080E2E00010EC76F006A1200FB
:100E360046C1F6FF47C1F7FF48C1F8FF0900F5CFE5
:100E4600BFF00900F5CFC0F00900F5CFC1F00900E9
:100E5600F5CFC2F0040E01014625F66E000E4721BD
:100E6600F76E000E4821F86E0900F5CFD0F00900A4
:100E7600F5CFD1F00900F5CFD2F00900F5CFD3F0C8
:100E8600080E4625F66E000E4721F76E000E482125
:100E9600F86E0900F5CFD8F00900F5CFD9F00900B2
:100EA600F5CFDAF00900F5CFDBF00C0E4625F66E2D
:100EB600000E4721F76E000E4821F86E0900F5CFA7
:100EC600DCF00900F5CFDDF00900F5CFDEF0090012
:100ED600F5CFDFF0100E4625F66E000E4721F76EB1
:100EE600000E4821F86E0900F5CFD4F00900F5CFC1
:100EF600D5F00900F5CFD6F00900F5CFD7F01200EE
:100F060046C149F147C14AF148C14BF10BD0A00E89
:100F1600C86E44DD44D0280EC86E40DD40D0040EB5
:100F2600006E3FD049C1F6FF4AC1F7FF4BC1F8FF3B
:100F36000900F5CF01F00900F5CF02F00900F5CF61
:100F460003F00900F5CF04F00450000A08E103504D
:100F5600010A05E10250860A02E10150A00AD7E023
:100F660049C1F6FF4AC1F7FF4BC1F8FF0900F5CFAB
:100F760001F00900F5CF02F00900F5CF03F00900F2
:100F8600F5CF04F00450000A08E10350060A05E113
:100F960002501A0A02E10150800ABDE0C0D7000ED5
:040FA600006E1200C7
:100FAA001C0E01014625F66E000E4721F76E000E53
:100FBA004821F86E0900F5CFC8F00900F5CFC9F04D
:0E0FCA000900F5CFCAF00900F5CFCBF01200F8
:100FD800C6C0E1FFC7C0E2FF46C1E9FF47C1EAFF5B
:100FE800EECFE6FFC4C000F0C5C001F026EC01F06A
:040FF800006A120079
:100FFC0059D0010147B102D0929201D092820F01D7
:10100C00259376D0010147B102D0929801D09288F5
:10101C006FD0010147B102D0969201D0968268D070
:10102C00010147B102D0949601D0948661D00101A0
:10103C0047B102D0949801D094885AD0010147B19D
:10104C0002D0949A01D0948A53D0010147B102D0B6
:10105C00949401D094844CD0010147B102D0939266
:10106C0001D0938245D0010147B102D0949E01D0AA
:10107C00948E3ED0010147B102D0949C01D0948C47
:10108C0037D0010147B102D0949601D0948630D06C
:10109C00010147B102D0949801D0948829D0010E57
:1010AC00006E28D001014651000AA3E04651010A06
:1010BC00A9E04651020AADE04651030AB1E046519F
:1010CC00040AB5E04651050AB9E04651060ABDE0EE
:1010DC004651070AC1E04651080AC5E04651090AC3
:1010EC00C9E046510A0ACDE046510B0AD1E0D7D7E8
:0610FC00000E006E120060
:1011020059D0010147B102D0929001D092800F01D3
:10111200259176D0010147B102D0949001D09480FC
:101122006FD0010147B102D0969001D0968068D06D
:10113200010147B102D0949601D0948661D0010199
:1011420047B102D0949801D094885AD0010147B196
:1011520002D0949A01D0948A53D0010147B102D0AF
:10116200949201D094824CD0010147B102D0939065
:1011720001D0938045D0010147B102D0949E01D0A5
:10118200948E3ED0010147B102D0949C01D0948C40
:1011920037D0010147B102D0949601D0948630D065
:1011A200010147B102D0949801D0948829D0010E50
:1011B200006E28D001014651000AA3E04651010AFF
:1011C200A9E04651020AADE04651030AB1E0465198
:1011D200040AB5E04651050AB9E04651060ABDE0E7
:1011E2004651070AC1E04651080AC5E04651090ABC
:1011F200C9E046510A0ACDE046510B0AD1E0D7D7E1
:06120200000E006E120058
:1012080021D0CF0EAF6EAC9478DC6BD0670EAF6E8A
:10121800AC9473DC66D0CF0EAF6EAC846EDC61D05C
:10122800670EAF6EAC8469DC5CD0440EAF6EAC84E4
:1012380064DC57D0220EAF6EAC845FDC52D0060E51
:10124800006E59D0000E006E0101491908E10050E6
:10125800481905E1120E471902E14651C00AD1E0CA
:10126800000E006E491908E10050481905E1250EE5
:10127800471902E14651800AC9E0000E006E49197B
:1012880008E10050481905E14B0E471902E14651A3
:10129800000AC1E0000E006E491908E10050481923
:1012A80005E1960E471902E14651000AB9E0000E21
:1012B800006E491908E10050481905E1E10E471987
:1012C80002E14651000AB1E04951000A08E14851DB
:1012D800010A05E14751C20A02E14651000AAAE0A3
:1012E800AED77C0E0001C46F010EC56F5D0EC66FD0
:0812F800010EC76F006A12002D
:1013000046C147F1BFEC04F0C3C04DF1470E4E6F2C
:10131000010E4F6F010E506F000E516F010E526F94
:101320002AEC05F0C3C04DF1470E01014E6F010ECE
:101330004F6F010E506F000E516F526B0EDC47C1A4
:0413400000F01200A7
:1013440001014A6B050E4A5D0AE24A514825E16EE5
:10135400000E4921E26E200EE66E4A2BF3D74A5165
:101364004825E16E000E4921E26EE66A4A074A51B9
:1013740048254B6F000E49214C6F0A0E046E000E77
:10138400056E46C100F047C101F00FEC05F008C03E
:1013940000F009C001F0300E00264BC1E1FF4CC142
:1013A400E2FF00C0E6FF0A0E046E000E056E46C1A1
:1013B40000F047C101F00FEC05F000C046F101C098
:1013C40047F1000E011802E1000E001801E102D0FD
:0613D4004A07CDD712000C
:1013DA0046C149F147C14AF148C14BF10DD0A00EAF
:1013EA00C86ED1EC04F045D0280EC86ED1EC04F0DA
:1013FA0040D0040E006E3FD049C1F6FF4AC1F7FF44
:10140A004BC1F8FF0900F5CF01F00900F5CF02F052
:10141A000900F5CF03F00900F5CF04F00450000AE3
:10142A0008E10350010A05E10250860A02E101506F
:10143A00A00AD5E049C1F6FF4AC1F7FF4BC1F8FF40
:10144A000900F5CF01F00900F5CF02F00900F5CF48
:10145A0003F00900F5CF04F00450000A08E1035034
:10146A00060A05E102501A0A02E10150800ABCE0AC
:08147A00C0D7000E006E120045
:1014820046C149F147C14AF148C14BF10DD0A00E06
:10149200C86ED1EC04F045D0280EC86ED1EC04F031
:1014A20040D0040E006E3FD049C1F6FF4AC1F7FF9B
:1014B2004BC1F8FF0900F5CF01F00900F5CF02F0AA
:1014C2000900F5CF03F00900F5CF04F00450000A3B
:1014D20008E10350010A05E10250860A02E10150C7
:1014E200A00AD5E049C1F6FF4AC1F7FF4BC1F8FF98
:1014F2000900F5CF01F00900F5CF02F00900F5CFA0
:1015020003F00900F5CF04F00450000A08E103508B
:10151200060A05E102501A0A02E10150800ABCE003
:08152200C0D7000E006E12009C
:10152A005DD0010147B102D0929401D092840F019B
:10153A0025957AD0010147B102D0969601D09686B8
:10154A0073D0010147B102D0969401D096846CD031
:10155A00010147B102D0949601D0948665D0010169
:10156A0047B102D0949801D094885ED0010147B166
:10157A0002D0949A01D0948A57D0010147B102D07F
:10158A00989001D0988050D0010147B102D093942D
:10159A0001D0938449D0010147B102D0989401D077
:1015AA0098840F01239540D0010147B102D0989247
:1015BA0001D098820F01239337D0010147B102D09D
:1015CA00949601D0948630D0010147B102D0949804
:1015DA0001D0948829D0010E006E28D0010146510D
:1015EA00000A9FE04651010AA5E04651020AA9E015
:1015FA004651030AADE04651040AB1E04651050AD4
:10160A00B5E04651060AB9E04651070ABDE046511F
:10161A00080AC1E04651090AC7E046510A0ACDE064
:0E162A0046510B0AD1E0D7D7000E006E120019
:101638003ED00F0120870D0E1F6F040E1E6F2185EF
:1016480092EC04F083D00F012087060E1F6F820EE4
:101658001E6F218592EC04F079D00F012087030ECC
:101668001F6F400E1E6F218592EC04F06FD00F01A2
:101678002087010E1F6FA00E1E6F218592EC04F0CB
:1016880065D00F012087010E1F6F150E1E6F218573
:1016980092EC04F05BD00F0120871F6B8A0E1E6F3F
:1016A800218592EC04F052D0060E006E59D0000E3F
:1016B800006E0101491908E10050481905E1120EB0
:1016C800471902E14651C00AB4E0000E006E4919FC
:1016D80008E10050481905E1250E471902E1465175
:1016E800800AB1E0000E006E491908E1005048195F
:1016F80005E14B0E471902E14651000AAEE0000E23
:10170800006E491908E10050481905E1960E47197D
:1017180002E14651000AABE0000E006E491908E1EB
:101728000050481905E1E10E471902E14651000A47
:10173800A8E04951000A08E14851010A05E147516A
:10174800C20A02E14651000AA6E0AED76C0E0001BB
:10175800C46F010EC56F5D0EC66F010EC76F006ABC
:0217680012006D
:10176A0015D03DC146F13EC147F1C6DC1AD03DC194
:10177A0046F13EC147F13DDC14D03DC146F13EC1C0
:10178A0047F1CEDE0ED0010E006E0BD001013C51A6
:10179A00000AE7E03C51010AEAE03C51020AEDE0A6
:0417AA00F2D7120060
:1017AE001CD03DC146F13EC147F13FC148F162DE5A
:1017BE001FD03DC146F13EC147F13FC148F106DEA3
:1017CE0017D03DC146F13EC147F13FC148F183EC10
:1017DE0007F00ED0010E006E0BD001013C51000A35
:1017EE00E0E03C51010AE5E03C51020AEAE0F2D7A2
:0217FE001200D7
:101800002DD03DC146F13EC147F13FC148F140C135
:1018100049F123EC06F030D03DC146F13EC147F11D
:101820003FC148F140C149F1EFDC26D03DC146F14E
:101830003EC147F13FC148F140C149F1FDDE1CD036
:101840003DC146F13EC147F13FC148F140C149F1B8
:101850009FEC06F011D0010E006E0ED001013C513C
:10186000000ACFE03C51010AD7E03C51020ADEE019
:0A1870003C51100AE5E0EFD712002A
:10187A002B0E0101466F3FDD00C03EF12A0E010129
:10188A00466F39DD00C03FF13EC13CF1000E010157
:10189A003D6F3CC103F0026A02C03CF103C03DF156
:1018AA00000E016E025000120350011200C03CF1FA
:0618BA0001C03DF1120027
:1018C0002D0E0101466F1CDD00C03EF12C0E010102
:1018D000466F16DD00C03FF13EC13CF1000E010134
:1018E0003D6F3CC103F0026A02C03CF103C03DF110
:1018F000000E016E025000120350011200C03CF1B4
:0619000001C03DF11200E0
:10190600290E0101466FF9DC00C03EF1280E0101E7
:10191600466FF3DC00C03FF13EC13CF1000E010111
:101926003D6F3CC103F0026A02C03CF103C03DF1C9
:10193600000E016E025000120350011200C03CF16D
:0619460001C03DF112009A
:10194C000F0E0101466FD6DC0050320A03E0010E87
:08195C00006E01D0006A1200C8
:101964003CC13FF13DC140F10D0E0101006F0A0E73
:10197400416F3AD03FC146F140C147F1ECEC07F06A
:101984003ED03FC1E9FF40C1EAFFEE520AE03FC149
:1019940046F140C147F1ECEC07F001013F4B402B0D
:1019A400F0D72DD03FC1E9FF40C1EAFFEE520AE073
:1019B4003FC146F140C147F1ECEC07F001013F4B58
:1019C400402BF0D70101000E466F010E476FECEC7F
:1019D40007F0410E0101466F010E476FECEC07F072
:1019E4000ED0060E006E0CD001013E51000AC2E07A
:1019F4003E51010AC6E03E51020AD4E0F2D7006A21
:021A04001200CE
:101A06000101426B436B3CC144F13DC145F1800E7F
:101A16003D19006E800E005C02E1000E3C5D0BE29B
:101A2600010E426F000E436F3C510008446F3DC1EA
:101A360045F1000E455744C146F145C147F13EC147
:101A460048F13FC149F17BDC060E406F000E416F45
:101A5600000E006E4151005C02E14051000819E29F
:101A660040513E25E16E41513F21E26E010E405D3F
:101A7600006E000E4159016E00503E25E96E015080
:101A86003F21EA6EEECFE6FF010E405F000E415B9E
:101A9600DFD73EC1E1FF3FC1E2FF200EE66E4251B5
:101AA60043111AE0406B416B40513E25E96E4151AE
:101AB6003F21EA6EEE50200A03E1404B412BF4D75A
:101AC600010E405F000E415B40513E25E16E4151E3
:0A1AD6003F21E26E2D0EE66E1200B5
:101AE00042C1C3F03FC146F140C147F141C148F195
:101AF0001BEC07F03CC146F13DC147F13EC148F146
:061B0000D5EC07F0120015
:101B0600090E0B6E1E0E0C6EE40E0D6E0D2EFED71C
:0C1B16000C2EFCD70B2EFAD7000012009A
:101B2200520E0B6E2B0E0C6E000E0D6E0D2EFED78E
:0C1B32000C2EFCD70B2EFAD7000012007E
:101B3E00200E0101466F270E476F11EC06F0230EA3
:0C1B4E000101466F476B11EC06F012001D
:101B5A0001013C6B070E3D6F3E6B02DE01013C6BDF
:101B6A00000E3D6F1E0E3E6F000E3F6F1BDE010E14
:101B7A0001013C6F800E3D6F250E3E6F000E3F6FD8
:081B8A00406F39DEBBDF1200E1
:101B92000900F5CFE6FF0006FBE10106F9E11200BC
:101BA200B1DE00C009F101C00AF166DE00C00BF12E
:101BB20001C00CF184DE00C00DF101C00EF109C1BB
:101BC2003CF10AC13DF10F0E3E6F010E3F6F1ADF6D
:101BD2000BC13CF10CC13DF11E0E3E6F010E3F6F79
:101BE20011DF0DC13CF10EC13DF12D0E3E6F010E14
:101BF2003F6F08DF490E3C6F000E3D6F010E3E6FD6
:101C0200B0DE0F0E01013C6F010E3D6F010E3E6F03
:101C1200A8DE530E01013C6F000E3D6F010E3E6FB8
:101C2200A0DE1E0E01013C6F010E3D6F010E3E6FE4
:101C320098DE4C0E01013C6F000E3D6F010E3E6FAF
:101C420090DE2D0E01013C6F010E3D6F020E3E6FC4
:061C520088DE66DF1200CF
:101C58008C0E01013C6F1D0E3D6F000E3E6FEC0EA9
:101C68003F6F1D0E406F000E416F180E426F34DF3C
:101C780046DF61DF67DE0050000A19E15E0E0101F0
:101C88003C6F000E3D6F020E3E6F68DEA00E010134
:101C98003C6F000E3D6F020E3E6F60DE7F0E01014D
:101CA8003C6F000E3D6F020E3E6F58DE10D0360EB0
:101CB80001013C6F000E3D6F020E3E6F4FDE150EA8
:101CC80001013C6F000E3D6F020E3E6F47DE1200B1
:0E1CD80002EC0FF03EDFBCDF60DFFED7FFD76F
:101E040010EE15F0A60E006E010E016EE60EF66ED3
:0E1E14001C0EF76E000EF86EC9EC0DF01200F9
:101CE6002D2D2D2D2D2D2D2D2D2D2D2D2D2D2D2D1E
:101CF6002D2D2D2D2D2D2D2D2D2D2D2D2D2D2D2D0E
:011D060000DC
:101D07002020202020202020202020202045525243
:031D17004F520028
:031D1A00583A0034
:071D1D00202020205A3A00AB
:071D240020202020593A00A5
:041D2B0000000000B4
:101D2F002D2D2D2D2D2D2D2D2D2D2D2D2D2D2D2DD4
:101D3F002D2D2D2D2D2D2D2D2D2D2D2D2D2D2D2DC4
:011D4F000093
:101D50002D2D2D2D2D2D2D2D2D2D2D2D2D2D2D2DB3
:101D60002D2D2D2D2D2D2D2D2D2D2D2D2D2D2D2DA3
:011D70000072
:101D71002020202020202020496E697469616C692F
:071D8100736174696F6E00CD
:041D88000000000057
:101D8C0098015D018A015D015E015D0134015D0117
:101D9C0026015D0150015D0142015D01A6015D015D
:101DAC0008025D01FA015D0124025D0116025D016C
:101DBC0094020000B2020000A80200009E02000083
:101DCC00F8030000EE030000E4030000160400001A
:101DDC000C04000002040000DA030000B20300004F
:101DEC00F20600009E08000048080000EE045701AF
:041DFC002A0457015D
:041E0000A0860100B7
:020000040030CA
:0E00000015137F7CF98B91FFFFC0FFE0FF40DE
:00000001FF
